:020000040800F2
:10000000284B0020F1010008D90F0008290F000833
:10001000D50F000833040008911500080000000007
:100020000000000000000000000000005113000864
:100030003704000800000000E5100008A1140008C3
:10004000070200080702000807020008070200086C
:10005000070200080702000807020008070200085C
:10006000070200080702000807020008070200084C
:10007000070200080702000807020008070200083C
:10008000070200080702000807020008070200082C
:10009000070200080702000807020008070200081C
:1000A000070200080702000807020008070200080C
:1000B00007020008070200080702000807020008FC
:1000C00007020008070200080702000807020008EC
:1000D00007020008070200080702000807020008DC
:1000E00007020008070200080702000800000000DD
:1000F0000000000000000000000000000000000000
:1001000000000000000000000702000807020008CD
:10011000070200080702000807020008070200089B
:10012000070200080702000807020008070200088B
:100130000702000819060008070200080702000865
:10014000070200080702000807020008070200086B
:1001500000F002F800F03CF80AA090E8000C82449D
:100160008344AAF10107DA4501D100F031F8AFF27A
:10017000090EBAE80F0013F0010F18BFFB1A43F085
:10018000010318471C7600003C760000103A24BF9B
:1001900078C878C1FAD8520724BF30C830C144BFEC
:1001A00004680C607047000000230024002500262E
:1001B000103A28BF78C1FBD8520728BF30C148BFCA
:1001C0000B6070471FB507F075FA1FBD10B510BD65
:1001D00000F0F2F81146FFF7F5FF03F0CDF800F05C
:1001E00010F903B4FFF7F2FF03BC00F01BF90000A5
:1001F00008480047FEE7FEE7FEE7FEE7FEE7FEE70A
:10020000FEE7FEE7FEE7FEE703480449044A054B24
:10021000704700005101000828450020284B0020AD
:10022000284700202847002040EA010310B59B071B
:100230000AD1042A08D310C808C9121F9C42F8D05A
:1002400020BA19BA401A10BD1AB1D30703D0521CF4
:1002500007E0002010BD10F8013B11F8014B1B1BFB
:1002600007D110F8013B11F8014B1B1B01D1921E65
:10027000F1D1184610BD032A40F2308010F0030C73
:1002800000F0158011F8013BBCF1020F624498BFE9
:1002900011F801CB00F8013B38BF11F8013BA2F186
:1002A000040298BF00F801CB38BF00F8013B11F001
:1002B000030300F04F80083AC0F0088051F8043B77
:1002C000083A51F804CBA0E80810F5E7121D5CBF0E
:1002D00051F8043B40F8043BAFF30080D20724BF41
:1002E00011F8013B11F801CB48BF11F8012B24BFD5
:1002F00000F8013B00F801CB48BF00F8012B704724
:100300004FF0000200B5134694469646203922BFAE
:10031000A0E80C50A0E80C50B1F12001BFF4F7AFF9
:10032000090728BFA0E80C5048BF0CC05DF804EBDB
:10033000890028BF40F8042B08BF704748BF20F849
:10034000022B11F0804F18BF00F8012B7047704747
:100350007047704710B5203AC0F00B80B1E81850D4
:10036000203AA0E81850B1E81850A0E81850BFF49F
:10037000F5AF5FEA027C24BFB1E81850A0E818503E
:1003800044BF18C918C0BDE810405FEA827C24BF92
:1003900051F8043B40F8043B08BF7047D20728BF20
:1003A00031F8023B48BF11F8012B28BF20F8023B6F
:1003B00048BF00F8012B7047754600F029F8AE469B
:1003C00005006946534620F00700854618B020B561
:1003D000FFF71AFFBDE820404FF000064FF000077E
:1003E0004FF000084FF0000B21F00701AC46ACE8DD
:1003F000C009ACE8C009ACE8C009ACE8C0098D464A
:1004000070470446AFF300802046FFF7EAFE000085
:1004100000487047C844002001487047704700BF3B
:10042000CC44002001491820ABBEFEE726000200A4
:10043000704700BFFEE77047014948617047000000
:100440000090024029B1064AD2690243044BDA61A6
:1004500004E0034AD2698243014BDA61704700002D
:100460000090024030B10749896941F00201054A14
:10047000916105E00349896921F00201014A916116
:10048000704700000090024030B50C461346002132
:10049000104D286000BF18E000EB01124FF000453E
:1004A000156044F2F0555560C1EB411505EB81151F
:1004B00004EB051595605D1E8D4204D900EB011516
:1004C0001035D56000E0D060491C9942E4D3024D5C
:1004D000E86030BD400000200090024021B1426839
:1004E00022F00042426003E0426842F00042426073
:1004F0007047000030B10749896941F40051054A4D
:10050000916105E00349896921F40051014A916133
:10051000704700000090024030B50C4613460021A1
:100520000F4D286000BF15E000EB01124FF480155D
:100530001560C1EB411505EB811504EB05159560C0
:100540005D1E8D4204D900EB01151035D56000E029
:10055000D060491C9942E7D3024D286130BD0000AC
:100560003C0000200090024010B50121880300F0FB
:10057000CBFD00214FF4804000F0C6FD10BD0021EE
:10058000014600E0491E0029FCD1704703488069FC
:1005900040F48010014988617047000000900240DB
:1005A00001480068806870473C00002001460868E8
:1005B000C0F30D407047000000B500220F480068EE
:1005C000006810F0004F16D10C480068006810F465
:1005D000004F10D109480068006810F4807F0AD0ED
:1005E00006480068006810F4007F04D003480068E3
:1005F000FFF7DCFF0246104600BD0000400000206F
:1006000000200449096811F0010F01D0012000E029
:10061000002070470090024010B501E000F072FE2B
:10062000FFF7CAFF0028F9D14020FFF705FF4FF47C
:100630008030FFF701FF10BD2DE9F04786B004467A
:1006400088464FF000090025AA46854F00268548B8
:10065000056925F01C0501A800F086FD029F82486F
:10066000874205D38148874202D245F0080509E058
:100670007E48874205D37A48874202D245F00C056E
:1006800000E000BF774805614FF40042002140467A
:1006900000F088FA18B9002006B0BDE8F087744869
:1006A000FFF76DFF2068C0B300BF761C01214046F4
:1006B00000F026F910F0040F02D16E488642F4D300
:1006C0006C48864201D10020E6E700264FF48052B4
:1006D0000021404600F066FA08B90020DCE700BFC0
:1006E000761C0121404600F00BF910F0200F02D1DA
:1006F00060488642F4D35F48864201D10020CBE7B0
:1007000000261021404600F0FBF8814619F0040F46
:1007100004D04FF40060206202E00BE00020206271
:1007200019F0020F02D00020606116E04FF4804003
:10073000606112E0206AC0F3CF006169C1F34F012C
:1007400040EA01020021404600F02CFA08B90020DE
:10075000A2E76FF07F40FFF712FF42480568464866
:100760000540D4E901010843E168084321690843D1
:1007700061690843A1690843E1690843216A0843A4
:10078000616A0843A16A0843E16A0843216B084390
:10079000616B0843054333480560D4E90E01084303
:1007A000216C0843616C0843A16C0843E16C084369
:1007B000216D0843616D08432A494860A06D886037
:1007C000E06DC860084685694FF641700540D4E980
:1007D000181040EA0140A16E0843E16E0843216F02
:1007E0000843616F084305431E488561D4E91E0133
:1007F00008431C49C8612148856921480540D4E95E
:1008000020010843D4F888100843D4F88C1008431A
:10081000D4F890100843D4F894100843D4F89810F2
:100820000843D4F89C100843D4F8A01008430543AB
:1008300012488561D4E929010843D4F8AC10084373
:10084000D4F8B0100843D4F8B41040EA8100D4F8CA
:10085000B810084340F400000849086001201BE775
:100860000087930300800240002D3101C00E160264
:10087000FFFF0F00FFFF04000F8120FF00900240E8
:10088000233FDEF810B50B794C7943EA0422094B7B
:1008900003441A64CB781B068C7843EA04434C78F3
:1008A00043EA04230C7843EA0402024B03445A64EB
:1008B00010BD00000080024030B10749096841F0D6
:1008C0000401054A116005E00349096821F00401AB
:1008D000014A1160704700000080024030B10749B2
:1008E000096841F00801054A116005E003490968FB
:1008F00021F00801014A11607047000000800240A9
:1009000010B503460C46002100221348016901F08E
:100910001C014FF4784000EAC32001434FF4F86013
:1009200000EA8410014321F0020141F001010A486C
:10093000016100BF521C0848016911F0010F02D08B
:1009400006488242F6D30548824201D1002010BDFC
:100950000148406980B2FAE700800240FFFF0400CE
:1009600010B50548006830B100F02CFB02480021AA
:1009700001604160816010BDBC4400201EB50021B3
:100980000022009201920292214A1268126812F02B
:10099000004F10D0002200921E4A526912F0800FC0
:1009A00004D080221B4B5A6100229A609DE81C00F3
:1009B00080E81C001EBD164A1268126812F4004F2F
:1009C00016D1134A1268126812F4807F10D0104AB0
:1009D0001268126812F4007F0AD00D4A1268126879
:1009E000C2F30D42111F0A4A12689268019200E098
:1009F00000210091064A12680292054A1268D268E4
:100A0000034B1A609DE81C0080E81C0000BFD1E782
:100A100040000020009002400348006840F00100C0
:100A200001490860704700000090024000B50120B5
:100A3000FFF754FFFFF7AAFD0120FFF73DFF01205C
:100A4000FFF758FD0120FFF70DFD00BD00210160FB
:100A500041608160C160016141618161C161016288
:100A600041628162C162016341638163C16340216C
:100A700001642021416400218164C16401654165F4
:100A80008165C16501668021416600218166C1667C
:100A9000016741678167C1674FF08061C0F88010CE
:100AA0004910C0F884104910C0F88810C910C0F867
:100AB0008C100021C0F89010C0F89410C0F8981065
:100AC000C0F89C10C0F8A0104FF00071C0F8A4103E
:100AD0000021C0F8A8104FF40031C0F8AC10491242
:100AE000C0F8B0100021C0F8B410C0F8B8107047BA
:100AF00070B5054624480068006810F0004F1DD00E
:100B000000F080F8214800F0B5FC0222204921487D
:100B1000FFF702FD042220492048FFF7B5FC00241E
:100B200006E01E4901EB04100121FFF7D7FC641C0D
:100B3000042CF6DBFFF77AFF002070BDC5F30C0034
:100B400011490968486010480068006840F040504A
:100B50000D49096808600C480068006840F00040D2
:100B60000949096808600E48406910F0040F04D074
:100B700004200B4948610020486003480068C068B1
:100B8000014908600120D8E73C0000202200002035
:100B900000330020201B0020401B0020E01A002012
:100BA0000090024030B503460C4615460021002255
:100BB0001248016901F01C014FF4784000EAC3209B
:100BC00001434FF4F86000EA8410014341F0020150
:100BD00041F0010109484561016100BF521C07480D
:100BE000016911F0010F02D005488242F6D3044892
:100BF000824201D1002030BD0120FCE7008002408C
:100C0000FFFF040000B5AFB0002000F0C5F80620DB
:100C100000F072FBFFF7A8FCFFF7FEFE00BFFFF736
:100C2000EFFC0128FBD06846FFF710FF0120009081
:100C3000002007904FF400700A9000200B900E9057
:100C4000119013901490159020904FF00070219007
:100C50000011239000202590269004202890C005A4
:100C6000299040122A9080012B9040122C90400035
:100C70002E9001216846FFF7DFFC01210248FFF7B3
:100C8000E1FB2FB000BD00004000010008B50420CA
:100C9000ADF8000003208DF8020018208DF8030045
:100CA0006946394800F07EF80620ADF800000320C0
:100CB0008DF8020018208DF803006946334800F0D3
:100CC00071F843F62010ADF8000003208DF8020003
:100CD00018208DF8030069462D4800F063F80121C3
:100CE0004FF0201000F0E8F80B20ADF800000320D2
:100CF0008DF8020004208DF803006946224800F0B8
:100D000051F84FF48060ADF8000003208DF8020028
:100D100004208DF8030069461D4800F043F80820C0
:100D2000ADF8000003208DF8020004208DF80300C8
:100D30006946164800F036F84FF4F850ADF8000058
:100D400003208DF8020004208DF803006946114845
:100D500000F028F81020ADF8000000208DF8030006
:100D600069460A4800F01EF84FF48070ADF80000A4
:100D700003208DF8020018208DF803006946024810
:100D800000F010F808BD000000080140001001400C
:100D9000000C014000140140014908607047000048
:100DA000DC0020422DE9F04102460025002600200B
:100DB00000230024002791F803C00CF00F0591F8E0
:100DC00003C01CF0100F03D091F802C04CEA0505D7
:100DD000B1F800C01CF0FF0F31D0146800202BE0E8
:100DE0004FF0010C0CFA00F3B1F800C00CEA030656
:100DF0009E4220D183004FF00F0C0CFA03F7BC4346
:100E000005FA03FC4CEA040491F803C0BCF1280F76
:100E100006D14FF0010C0CFA00FCC2F814C00AE035
:100E200091F803C0BCF1480F05D14FF0010C0CFA4A
:100E300000FCC2F810C0401C0828D1D31460B1F8DF
:100E400000C0BCF1FF0F34DD546800202EE000F13B
:100E5000080C4FF0010808FA0CF3B1F800C00CEAD6
:100E600003069E4221D183004FF00F0C0CFA03F7CA
:100E7000BC4305FA03FC4CEA040491F803C0BCF13E
:100E8000280F05D100F1080C08FA0CF8C2F81480FC
:100E900091F803C0BCF1480F07D100F1080C4FF0E6
:100EA000010808FA0CF8C2F81080401C0828CED3BC
:100EB0005460BDE8F0810000F0B50A46002300242C
:100EC00000210025174E7168C0F3034583B200F47A
:100ED0004016B6F5401F08D121F07061114E7668BA
:100EE00026F070660F4F7E6012E000F48016B6F5B3
:100EF000801F06D1032606FA05F4A14341F0706174
:100F000006E0460D360103FA06F6B14341F0706182
:100F100022B1460D360103FA06F63143014E7160E7
:100F2000F0BD00000000014000BFFEE700B587B043
:100F300002F07EFA0E4806904FF6FF7005900D48BD
:100F400004900D4800F096FA0C4B0D4A00218DE8F4
:100F50000E0004AB05AA06A90A4802F01FFC0948C6
:100F600002F07EFC074802F0B3FC07B000BD0000B1
:100F7000C0A800A4C0A8001422000020F51F00088B
:100F8000DD200008D800002010B50446FFF7E8FC7B
:100F90000A480068201AFA2803D30848046006F0BB
:100FA000A1F907480068201A41F28831884203D32A
:100FB0000348046000F040FF10BD0000080000205E
:100FC0000C00002010B5024801F0AEF810BD000082
:100FD000D800002000BFFEE7704708B500214FF0A1
:100FE000006000F075F84FF4A06000F053F83D2069
:100FF0008DF8000002208DF8010000208DF802001D
:1010000001208DF80300684600F002F808BD0000DA
:1010100070B5002100230F22C4784CB31A4C246809
:1010200004F4E064C4F5E0644FEA1421C1F1040360
:1010300022FA01F2447804FA03F1847804EA020403
:1010400044EA01014FEA0111104C0678A1550478D9
:1010500004F01F054FF0010404FA05F405784FEA87
:1010600065154FF0E02606EB8505C5F8004109E05F
:10107000047804F01F050124AC40054D0678761174
:1010800045F8264070BD00000CED00E000E400E0F3
:1010900080E100E002490143024A1160704700000C
:1010A0000000FA050CED00E010B5002807DA0A0789
:1010B000120E054B00F00F04241F1A5503E00A0717
:1010C000120E024B1A5410BD18ED00E000E400E0CF
:1010D000024A0A400243024B1A60704780FFFF1F1A
:1010E00008ED00E07047000029B1064A526902434A
:1010F000044B5A6104E0034A52698243014B5A612E
:10110000704700000010024029B1064A926A02436B
:10111000044B9A6204E0034A926A8243014B9A624A
:10112000704700000010024029B1064AD26902430C
:10113000044BDA6104E0034AD2698243014BDA616D
:10114000704700000010024029B1064A926902432C
:10115000044B9A6104E0034A92698243014B9A610D
:1011600070470000001002402DE9F04100210022EC
:10117000002500230026002400278C46DFF860812C
:10118000D8F8048008F00C0121B1042907D00829FF
:1011900059D109E0DFF84C81C0F8008058E0DFF851
:1011A0004881C0F8008053E0DFF83481D8F804802B
:1011B00008F47012DFF82881D8F8048008F480352C
:1011C000920C0D2A01D0921C00E0062235B9DFF8FE
:1011D0001C8102FB08F8C0F8008033E0DFF80081D2
:1011E000D8F82C8008F48036DFF8F480D8F82C800A
:1011F00008F00F0808F1010446B9DFF8EC80B8FBED
:10120000F4F808FB02F8C0F800801BE0DFF8D0809B
:10121000D8F82C80C8F3031808F10107DFF8C08064
:10122000D8F82C80C8F3032808F1020CDFF8B88046
:10123000B8FBF7F808FB0CF8B8FBF4F808FB02F869
:10124000C0F8008004E0DFF89C80C0F8008000BF98
:1012500000BFDFF88C80D8F8048008F0F00109099D
:10126000DFF88C8018F80130D0F8008028FA03F8F5
:10127000C0F80480DFF86880D8F8048008F4E061E2
:10128000090ADFF86C8018F80130D0F8048028FAD9
:1012900003F8C0F80880DFF84880D8F8048008F424
:1012A0006051C90ADFF8488018F80130D0F804808E
:1012B00028FA03F8C0F80C80DFF82480D8F80480FE
:1012C00008F44041890BDFF82C8018F80130D0F881
:1012D0000C80B8FBF3F8C0F81080BDE8F081000086
:1012E0000010024000127A0040787D0100093D00A4
:1012F00028000020380000200149C8717047000014
:101300000010024010B50F48FFF738FB0D48006889
:1013100040F2DC51884205D80A48026841680A4810
:10132000FEF7A9FF4FF000400649896808600748AA
:10133000406910F0800F04D08020044948610020EB
:10134000886010BDBC440020E03E002000900240B8
:10135000704710B500F002F810BD000010B5002075
:1013600000213F4B1B6843F480333D4C236000BF9A
:101370003C4A3B4B1B6803F40031401C00BF130088
:10138000A2F10102FBD111B9B0F5A06FF0D1344B3D
:101390001B6813F4003F01D0012100E00021012966
:1013A0005BD1314B1B6843F010032F4C2360234665
:1013B0001B6823F00303236023461B6843F00203EA
:1013C0002360274B5B68264C636023465B68636041
:1013D00023465B6843F4806363602346DB6A234CE7
:1013E00023401F4CE3622346DB6A214C23431C4C01
:1013F000E36223461B6843F08063236000BF184B01
:101400001B6813F0006FFAD0154B5B6823F47C1354
:10141000134C636023465B6843F4E8136360234620
:101420001B6843F08073236000BF0D4B1B6813F0F3
:10143000007FFAD00A4B5B6823F00303084C63601B
:1014400023465B6843F00203636000BF044B5B68A4
:1014500003F00C03082BF9D101E000BFFEE710BD3B
:1014600000100240A08601000020024000F0FEFFB4
:101470004406010010B504462078084908706078D9
:101480004870A0788870E078C87020790871607919
:10149000487121460020FFF7F5F910BDD00000206B
:1014A00010B500F06DF810BD10B51448006840F09C
:1014B00001001249086008464068114908400F4978
:1014C0004860084600680F4908400C490860084613
:1014D000006820F4802008600846406820F4FE0080
:1014E00048600846006820F0A05008604FF47F0074
:1014F00088600020C862FFF72CFF10BD001002407A
:101500000000FFF0FFFFF6FE10B586B0FFF7CCFF3E
:1015100001214804FFF708FE01214FF4E030FFF7F6
:10152000E3FD012140F27D20FFF70EFEFFF755FDA0
:10153000FFF7ACFBFFF766FB01A8FFF715FE642180
:101540000198B0FBF1F4B4F1807F00D311E024F0F6
:101550007F40401E4FF0E02148610F214FF0FF30E7
:10156000FFF7A2FD00204FF0E0218861072008610D
:1015700000BF0121881EFFF797FD06B010BD0000D7
:10158000024800680A3001490860704700000020E6
:1015900000BFFEE72DE9FC4705468946164600BF19
:1015A0001DB900BF00BFBDE8FC8700BF70892A28B5
:1015B0000EDA4E48408C401C81B24C484184C08BAE
:1015C000401C81B24948C183304602F0A2FBEAE7E1
:1015D000776807F10E042088B0F5807F08D1207964
:1015E000062805D16079042802D1608808280ED029
:1015F0003E48008D401C81B23C480185C08B401C98
:1016000081B23A48C183304602F083FBCBE73748CA
:10161000408B401C81B235484183D4F80E000190C4
:10162000A0690090686810B94FF0000808E00098C1
:101630006968884201D1012000E0002000F0FF0825
:10164000B8F1000F01D0012000E00220C3B204F184
:10165000080201A9284600F05FFCE088B0F5807F11
:1016600003D0B0F5007F33D131E0B8F1000F2CD0BA
:10167000022001F040FEE080D4F80E00A06168680E
:10168000C4F80E0000BF95F82400062801D000BF62
:1016900000BF00BFA068C4F81200A089E082A06863
:1016A0003860A089B880D9F80000A060B9F80400BB
:1016B000A081D9F80000C7F80600B9F804007881C5
:1016C00031462846AA69904700E000BF07E006E0DF
:1016D0000648808D401C81B20448818500BF00BF50
:1016E000304602F016FB00BF5DE70000161900202F
:1016F0002DE9FC5F05460F464FF00A08C1460A2651
:101700000024B246A34600200190009000BF63E091
:1017100004EB44005D4A02EBC000017D0A2E02D1B9
:1017200009B966B256E059B300BF012903D00229B6
:1017300001DA00BF00BF00BF5DB104EB4402534BB0
:1017400003EBC20228685268904202D160B2BDE841
:10175000FC9F012928D104EB44004C4A52F8300088
:1017600078B104EB440002EBC000408A584531DBFD
:101770004FFA84FA04EB440002EBC000B0F812B058
:1017800028E004EB4400414A02EBC000428A019881
:1017900082421FDB4FFA84F804EB44003B4A02EB21
:1017A000C000408A019015E0022913DB052911DAF7
:1017B00004EB4400354A02EBC000428A00988242A2
:1017C00008DB4FFA84F904EB4400304A02EBC00016
:1017D000408A0090601CC4B20A2C99DB17F0020FFB
:1017E00004D10A2E05D117F0010F02D14FF0FF30BE
:1017F000ADE70A2E01DAF4B226E0B9F10A0F0BDAEE
:1018000009F0FF0400BF04EB4400204951F8300008
:1018100008B100BF00BF0EE0B8F10A0F02DA08F00D
:10182000FF0408E0BAF10A0F02DA0AF0FF0402E04E
:101830004FF0FF308BE700BF0A2C01DB00BF00BF79
:1018400000BF204600F024F800BF0A2C01DB00BFD7
:1018500000BF00BF00BF04EB44000C4901EBC00017
:10186000007D08B100BF00BF00BF35B104EB4401EB
:10187000064A02EBC10128684860002004EB4401DD
:10188000024A02EBC101488260B260E7F019002011
:1018900010B5044604EB44000C4951F8300060B127
:1018A00004EB4401094A52F8310002F032FA0020F8
:1018B00004EB4401054A42F83100002004EB4401E6
:1018C000024A02EBC101087510BD0000F0190020AA
:1018D0002DE9FC4705460F461446A14600BF0DB949
:1018E00000BF00BF00BF00BF0FB900BF00BF00BFF7
:1018F00000BF0CB900BF00BF00BF0E21384602F088
:1019000063FA40B149484089401C484948816FF01A
:101910000100BDE8FC872946206800F024FE10B1D4
:10192000DFF80C817AE0206800F0F000E02815D1A3
:1019300001208DF8000000208DF801005E208DF858
:101940000200607800F07F008DF80300A0788DF829
:101950000400E0788DF80500E8465EE02068A9689C
:101960000840D5E90112114088420DD0206880B2AC
:10197000A0F57E41A93907D0E86810B105F10C093E
:1019800002E06FF00300C4E72A48007800EB400053
:10199000294901EBC000007D022818DB25490978A0
:1019A00001EB4101244A02EBC101D9F8000049686A
:1019B00088420CD11D48C08D401C81B21B48C18596
:1019C0001C4802783946284600F038F8A1E700267E
:1019D0001BE006EB4600184901EBC000007D022821
:1019E00011DB06EB4601144A02EBC101D9F80000F5
:1019F0004968884207D10F490E70F2B2394628462D
:101A000000F01CF885E7701C46B20A2EE1DB3A466E
:101A10004946284600F074F87BE700BF434605F1CD
:101A200025023946284600F0E5F972E7161900202C
:101A30002C770008C2000020F019002070B5054680
:101A40000E46144600BF04EB44002C4901EBC000D5
:101A5000007D022801DA00BF00BF00BF04EB440094
:101A6000264901EBC000007D022839D104EB440077
:101A700001EBC000408AB0F58E7F11DD04EB44001D
:101A80000A4602EBC000011D284600F091F938BB60
:101A9000032004EB4401194A02EBC10108751FE061
:101AA00004EB4400154901EBC000408AB0F5877F84
:101AB00016DB04EB44000B4603EBC00000F10C0204
:101AC00004EB440003EBC000011D284600F07CF944
:101AD00030B9032004EB4401084A02EBC101087548
:101AE00004EB4400054901EBC00000F10C0305F1D3
:101AF00025023146284600F07DF970BDF01900201E
:101B00002DE9F84F80460F46164608F125094FF09B
:101B1000FF3000904FF0000A4146386800F023FD86
:101B200038B9386800F0F000E02802D00FB138680A
:101B300018B96FF00E00BDE8F88F42460121384613
:101B4000FFF7D6FD0446002C08DA2EB15A48808CE7
:101B5000401C81B2584881842046ECE704EB4400E5
:101B6000564901EBC000007D78B94FF0010A012011
:101B700004EB4401514A02EBC101087504EB440037
:101B8000114601EBC000C0F8088000BF04EB440020
:101B90004A4901EBC000007D012808D004EB440055
:101BA00001EBC000007D022801DA00BF00BF00BFCA
:101BB000BAF1000F00D13EB93946404600F0F8F8BE
:101BC00000900EB90098B6E700BF0EB900BF00BF85
:101BD00000BF04EB4400394901EBC000007D02283E
:101BE0000FDB37490C7004EB4400344901EBC000B3
:101BF00000F10C034A463146404600F0FBF80090E5
:101C000057E004EB44002D4901EBC000007D0128A2
:101C10004FD14FF0000B354610E000BF688929898D
:101C2000884203D1286808B100BF00BF00BF287BED
:101C3000012802D04FF0010B02E02D68002DECD1FD
:101C400000BFBBF1000F10D029890022032001F052
:101C500055FE05466DB13146284601F09BFF40B167
:101C6000284602F056F8002503E03546284602F0E3
:101C70006DF9A5B104EB4400104951F8300030B1C2
:101C800004EB44010D4A52F8310002F042F804EB33
:101C900044000A4941F830500020009008E006480E
:101CA000808C401C81B2044881844FF0FF3000904A
:101CB00000BF00983FE7000016190020F01900202F
:101CC000C20000202DE9FF4F81B0074688469146AB
:101CD0009A46DDF838B00020009000BF0FB900BF71
:101CE00000BF00BF00222A21032001F007FE0546A5
:101CF00055B92E48808C401C81B22C4881844FF00D
:101D0000FF3005B0BDE8F08F00BF68892A2801DAEE
:101D100000BF00BF00BF6E6806F10E04119801F00D
:101D2000EAFAE08000BF97F82400062801D000BF3F
:101D300000BF00BFDAF80000A060BAF80400A0817C
:101D40000F980168C4F812108088E082DBF8000068
:101D5000C4F80E0010980068A0614FF480702080D5
:101D60000820608006202071042060714FF4C1605B
:101D7000B081D9F800003060B9F80400B080D8F81C
:101D80000000C6F80600B8F80400708129463846FD
:101D9000BA69904700900548008B401C03490883AE
:101DA000284601F0B6FF00250098AAE71619002082
:101DB00070B504460D46034A2946204600F004F853
:101DC00070BD00002C7700087FB504460D4616460E
:101DD00001230749201D8DE82300039304F1250307
:101DE000324619462046FFF76DFF04B070BD000073
:101DF000327700082DE9F04104460E461746984612
:101E0000756800BF94F82400062801D000BF00BF09
:101E100000BF0820A881D8F800002860B8F80400A6
:101E2000A8803868C5F80600B88868813146204621
:101E3000A2699047BDE8F08170B5002466E004EB2C
:101E40004400344901EBC000057D3DB3052D5BD056
:101E500004EB440001EBC000408A401C04EB440149
:101E60002C4A02EBC101488204EB4400114601EB0D
:101E7000C000408AB0F5967F0DDA04EB440001EB18
:101E8000C000007D01280AD104EB440001EBC00032
:101E9000408A052803DB2046FFF7FAFC34E004EB18
:101EA00044001C4901EBC000007D032807D1042039
:101EB00004EB4401174A02EBC101087524E004EB6E
:101EC0004400144901EBC000007D042807D1022022
:101ED00004EB44010F4A02EBC101087514E004EB66
:101EE00044000C4901EBC000007D01280CD104EB3B
:101EF00044020B4603EBC202111D04EB440203EB48
:101F0000C2029068FFF754FF601CC4B20A2C96DB33
:101F100070BD0000F01900202DE9F04705460E467F
:101F20001746984600BF95F82400062801D000BF48
:101F300000BF00BF5EB1306848B12946306800F08C
:101F400012FB20B9306800F0F000E02803D16FF0F8
:101F50000E00BDE8F0872A4641463046FFF7C8FB31
:101F60000446002C01DA2046F3E718F0040F07D0EE
:101F7000052004EB44011E4A02EBC101087506E08E
:101F8000022004EB44011A4A02EBC101087504EB7C
:101F90004400174901EBC000856004EB440001EBED
:101FA000C0003968C160B9880182002004EB440197
:101FB0000F4A02EBC101488204EB4400114651F87C
:101FC000300098B104EB440051F83090002004EB4D
:101FD000440142F831003B4605F1250249462846B6
:101FE000FFF708FF484601F094FE00BF0020B0E76D
:101FF000F01900202DE9F04104460E464FF00E087E
:1020000060890E280BDC3348008D401C81B23148BA
:102010000185C08B401C81B22E48C18355E06568A4
:10202000AF89287810F0010F16D02878012809D13F
:10203000687888B9A8785E280ED1607B40F01000DF
:10204000607309E0062224492846FEF7EDF818B926
:10205000607B40F008006073082F03D0B7F5C16FB4
:1020600023D115E096F82B0010F0080F00D12CE0DA
:102070006089404506DBC8F1000001B2204601F04E
:10208000A3FE00B121E03146204600F073FB18E0CA
:1020900096F82B0010F0080F00D116E0224606F14A
:1020A00025013046FFF776FA0BE00A48008D401C08
:1020B00081B208480185C08B401C81B20548C183AC
:1020C00003E000BF0020BDE8F081204601F021FEC2
:1020D0000020F8E7161900202C77000870B5044698
:1020E00000BF0CB900BF00BF00BF082001F0D2F94B
:1020F000054615B94FF0FF3070BDE561732084F8D7
:102100002C0074212D200155054860610548A0610F
:1021100004F125002860204601F05AF80020EBE782
:10212000D1180008A932000870B50446204601F015
:1021300095F8064616B94FF0FF3070BD214630467F
:102140002269904705461DB1304601F0E2FD0026A8
:102150002846F2E770B505460C462246032128467C
:1021600000F014F970BD00002DE9F34F83B005466F
:102170008448B0F86200401C81B28248A0F8621026
:102180008148D0F808B09BF8000000074FEA90693A
:102190006889042800D2DCE06868047814B1082C4F
:1021A00073D100E0D0E0DFF8E0A10AF1140A76482C
:1021B000406900F0F000E02800D1D6E0724A1168D2
:1021C000506900F0D0F900B1CFE02889082800D28A
:1021D000BFE0284600F039F968B1284601F099FDC2
:1021E0006848B0F86800401C81B26648A0F86810E2
:1021F00005B0BDE8F08F2221284601F0E5FD98B337
:102200002889484481B20022022001F077FB8046F1
:10221000B8F1000F00D1A8E000BFB8F80A1009F12A
:102220000800814201D200BF00BF00BF4A465946A4
:10223000D8F80400FEF71FF8D8F80470C9F10000C0
:1022400001B2404601F0C0FD20B100BF00BF00BF99
:1022500000BF8AE02946404601F09CFC28B100BF3F
:1022600000BF00BF00BF80E004E0284601F051FD40
:1022700045460BE06FF02101284601F0A5FD28B18D
:1022800000BF00BF00BF00BF6FE03CE06E68494682
:10229000284601F099FD18B100BF00BF00BF31E032
:1022A0006F68DAF80000F86037480069386100208C
:1022B000307070884FF6F771884203D97088093002
:1022C000708002E0708808307080FF203872002033
:1022D00078811421384600F0AEF878812948B0F8AA
:1022E0006000401C2749A1F8600001220021049BE6
:1022F0008DE80E00FF230A465146284600F058FBA1
:10230000804600BF20E0032C0ED00B2C0CD00C2CF0
:102310000AD0042C08D0052C06D00D2C04D00E2C8D
:1023200002D0112C00D000BF1648B0F87000401C3D
:1023300081B21448A0F87010B0F86600401C81B259
:102340001048A0F8661000BF00BF284601F0E1FC6D
:102350004EE7284601F0DDFC0A48B0F86A00401C50
:1023600081B20848A0F86A1042E7284601F0D1FC83
:102370000448B0F87400401C81B20248A0F8741000
:1023800000BF35E716190020D81900202DE9FF47B6
:1023900007468846914600222421012001F0AEFA2A
:1023A00005460DB9BDE8FF8700BF6889242801D222
:1023B00000BF00BF00BFD7F804A06C6884F800809D
:1023C00084F801900020A080E08079686A6802F1BA
:1023D00008001C22FDF74FFF03A800F09BFC0646F7
:1023E000CEB1002060806989204600F024F860802A
:1023F0000B48B0F86000401C0949A1F86000DAF809
:102400000C00039001220021FF238DE8460003AA5F
:10241000284600F0CDFA284601F07BFC00BFC1E75A
:102420001619002070B505460C4622460B21284699
:10243000FFF7ACFF70BD30B504460D462946204677
:1024400000F06BFFC04380B230BDF0B506460024FB
:102450000027354617E06989686800F05EFF04448C
:10246000A0B200EB1444688900EBD0714910B0EBC6
:10247000410107D0C7F10100C7B2E0B2C4F30721A0
:1024800041EA00242D68002DE5D127B1E0B2C4F364
:10249000072141EA0024E04380B2F0BD2DE9F04776
:1024A0000746884691461E46DDF820A03568ACB246
:1024B0004FF6FF7000EA15400444DAF80050A8B265
:1024C00004444FF6FF7000EA15400444A0B200EB4C
:1024D0001444A0B200EB144423464A464146384611
:1024E00000F002F8BDE8F0872DE9F04706460F46F8
:1024F00090461C464FF00009354618E06989686827
:1025000000F00BFF0444A0B200EB1444688900EB18
:10251000D0714910B0EB410108D0C9F1010000F0C1
:10252000FF09E0B2C4F3072141EA00242D68002D21
:10253000E4D1B9F1000F04D0E0B2C4F3072141EABD
:102540000024384600F0D7FE0444404600F0D3FE95
:102550000444A0B200EB1444A0B200EB1444E043E6
:1025600080B2BDE8F08718B502460092D04300D093
:102570000AB9012018BD91F82B0010F0020F01D10B
:102580000020F7E74868904201D10020F2E7009868
:102590008B681840D1E901342340984208D18868FB
:1025A00022EA00008C68E343984201D10120E1E770
:1025B0000020DFE72DE9F74F8CB004468946B9F8D3
:1025C00022000890142004904FF0000860680B90DF
:1025D0000B9EF08800F09BFE03900398C0F30C0064
:1025E0000790039800F4005006902089143880B2B8
:1025F00009900899A1F11400C11700EB5171C1F3C2
:10260000CF010A91A8E0089814380999884201DBA3
:10261000012000E0002080B205900798C0F30C0074
:10262000069908430390059818B9039840F40050A0
:102630000390059808B1099801E00A98C0001FFAB4
:1026400080FB00221421022001F058F9054605B94B
:1026500089E000BF6089142801DA00BF00BF00BF15
:10266000142268680B99FDF706FE6E68616804988D
:102670000844606061890498081A6081CDF808B048
:102680003CE061890298814201DD029800E06089A6
:102690001FFA80F8B8F1000F01D124682EE000F095
:1026A0009DFB07461FB9284601F033FB5BE06268DB
:1026B0003B46CDE9002802224146042001F006FAFB
:1026C0008246BAF1000F06D1384600F08FFB28464B
:1026D00001F01FFB47E0204601F038FC7C612348F5
:1026E00038615146284601F024FA0298A0EB080010
:1026F00080B20290029800B1246800BF02980028BE
:10270000BFD1CDF81080039800F0F5FDF0800BF1FB
:10271000140080B200F0EFFD708000207081142161
:102720003046FFF788FE7081D9F8143029464846B4
:102730000E9A98470E48008E401C0D490886284680
:1027400001F0E7FA0998A0EB0B0080B209900A9912
:102750000798084480B20790099800287FF453AF87
:102760000FB0BDE8F08F4FF0FF30F9E7A13100085E
:10277000161900202DE9F047064689468948B0F829
:102780004A00401C81B28748A0F84A10746820783B
:102790000421B1EB201F14D0304601F0BAFA814871
:1027A000B0F85C00401C81B27E48A0F85C10B0F824
:1027B0004E00401C81B27B48A0F84E100020BDE8BE
:1027C000F087207800F00F07BF00608800F09FFDC1
:1027D00080463189414503DD4146304601F05AFBD0
:1027E0007089B84202DB3089404513DA304601F087
:1027F00090FA6C48B0F85200401C81B26948A0F8C9
:102800005210B0F84E00401C81B26648A0F84E103D
:102810000020D4E739462046FFF70DFE98B1304638
:1028200001F077FA5F48B0F85000401C81B25D4873
:10283000A0F85010B0F84E00401C81B25948A0F8E2
:102840004E100020BBE7206957494861E0680861E5
:102850004FF0010A4D4600BF95F82B0010F0010F14
:102860000DD0686858B1504840696968884205D001
:102870004D4948692946FFF776FE00B10DE0BAF1EF
:10288000000F04D04FF0000A4848056800E02D68AA
:102890004D4500D12D68002DDED100BF42490869A9
:1028A0004946FFF760FE28B93F48006900F0F00094
:1028B000E0280CD1304601F02CFA3A48B0F84E002E
:1028C000401C81B23748A0F84E10002077E725B9A8
:1028D000304601F01EFA002071E7E0884FF63F71A4
:1028E000084207D0304600F01FF906460EB9002016
:1028F00065E774682C480560C0F80490846020780F
:102900000007800E28498881784201B2304601F0E4
:102910005BFA607A01280DD0062806D011280ED166
:102920004946304604F096FD31E04946304601F014
:10293000A3FF2CE049463046FFF716FC27E01A4972
:1029400048692946FFF70FFE70B91748406900F043
:10295000F000E02808D039B2304601F03EFA746049
:1029600002213046FFF7F6FB304601F0D2F90D4860
:10297000B0F85800401C81B20A48A0F85810B0F8CE
:102980004E00401C81B20748A0F84E1000BF00BFA7
:1029900000200549086048608860888108614861B6
:1029A00000BF0CE716190020D8190020580000209D
:1029B0002DE9FE4F07460C4615469846DDE90C9A70
:1029C0000E9EA34625B10CB1206808B906F1040B90
:1029D00043462A4659463846CDE9009A029600F009
:1029E00003F8BDE8FE8F00002DE9FF4F81B00646D9
:1029F000884691469A46109F002500BFF08901281D
:102A000001D000BF00BF00BFB9F1000F69D04FF087
:102A1000140B1421304601F0D7F960B13F48B0F8EB
:102A20005C00401C81B23D48A0F85C106FF00100D2
:102A300005B0BDE8F08F746800BF7089142801D21A
:102A400000BF00BF00BF84F808A00F9860720F9805
:102A50004AEA00200544D9F800002061206980B2CC
:102A60000544206905EB104558464FEAEB710BEB26
:102A70009171C1F3870141F0400121700E9860709F
:102A800021780E9841EA00200544308900F033FC9B
:102A90006080608805440020E0802148008800F0C4
:102AA0002AFCA080A08805441D480088401C1C49C1
:102AB0000880B8F1000F03D11A480068E06002E016
:102AC000D8F80000E060E06880B20544E06805EBFB
:102AD0001045A8B200EB154505EB1545ED436581A2
:102AE00003E0746820690090E9460C48B0F848009B
:102AF000401C0A49A1F84800788C48B13089798C8B
:102B0000884205DD4A4639463046FFF753FD8FE7D8
:102B10004A46314638467B69984789E716190020AE
:102B2000B8000020247700082DE9F84F8146764848
:102B3000408E401C81B274484186D9F804502878F0
:102B400000F00F001421B1EB800F08D06E48B0F8F0
:102B50004400401C81B26C48A0F84410C9E0E888E9
:102B600000F0D5FBC0044FEA104A688800F0CFFBA4
:102B7000297801F00F01A0EB810080B20090484657
:102B800000F0FFFF06466148018888190A2810DD19
:102B90003146284600F0C0FA20B15C480088304435
:102BA0000A2806DD5848808F401C81B2564881872C
:102BB0009FE05748046819E06069E968884209D1D4
:102BC000A0692969884205D1A089A988884201D1D4
:102BD000012000E0002040B14B48B0F84600401C06
:102BE00081B24948A0F8461002E02468002CE3D1E5
:102BF00000BF34B93146284600F0ECF9044694B9D8
:102C000077E0E88800F083FBC004C00C0BD1E089BA
:102C100000F07DFBC004C00C05D01422294604F14D
:102C20000800FDF728FB3948008830443749088000
:102C3000E88810F0200F06D1A07F40F00100A077B7
:102C400000985044A0834946204600F0DBF898B332
:102C5000A08B1430A08360684068D0F80080606862
:102C60004568142204F108012846FDF704FBA08BF7
:102C700000F041FB68800020E8806881142128462C
:102C8000FFF7D9FB6881D4F804900CE0D8F804B0C1
:102C90006FF01301404601F097F84146484600F0B6
:102CA00048FFDBF80080B8F1000FEFD1184800684A
:102CB000844202D100270BE019E01548076804E0C0
:102CC0003868A04200D102E03F68002FF8D100BF71
:102CD0003946204600F066F9484600F052FF0B499D
:102CE0000988081A094908804846BDE8F88F00207D
:102CF000FBE70548C08E401C81B20348C1864846A8
:102D000001F007F80020F0E716190020C0000020AD
:102D1000BC00002010B502462448016821E091F86B
:102D20002B0010F0010F1BD091F82B00C0F3800096
:102D3000B0B14868A0B110688B681840D1E901347F
:102D40002340984201D1084610BD91F82B0010F0A5
:102D5000020F05D11068CB68984201D10846F3E70D
:102D600009680029DBD11248006888B11048006862
:102D700090F82B0010F0010F0AD00D48006890F871
:102D80002B00C0F3800018B109480068406848B9BA
:102D90000848B0F85600401C83B20648A0F85630E8
:102DA0000020D1E702480068CEE70000580000206C
:102DB0005C000020161900202DE9F84304460D465A
:102DC00016461F46DDF820803B46324629462046FF
:102DD000CDF80080FFF762FBBDE8F88310B502492B
:102DE000488900F057FB10BDC276000810B50446B4
:102DF00000BF0CB900BF00BF00BF204600F0C8FAFA
:102E000010BD00002DE9FC5F06460F4600254FF07F
:102E1000010BD7F804A0BAF8020000F078FA9AF88B
:102E2000001001F00F01A0EB810080B20090BAF811
:102E3000060000F06CFAC004000C019000BF00BF57
:102E40007C68002020600198A080DDE90010084423
:102E5000E080D6F804902EE0D9F80480A088B8F875
:102E60000410884210DAC4F800905DB1A088E988A7
:102E7000884204DBE088B8F80410884200DD81E075
:102E80002F6000E0776019E0A088B8F8041088424D
:102E900000D177E0A088B8F80610884200DA71E027
:102EA00035B1E888B8F80410884201D04FF0000B23
:102EB000D8F800904546B9F1000FCDD100BFB9F167
:102EC000000F17D17DB100BFE888A188884201DDDD
:102ED00000BF00BF00BF2F60E888A188884209D0EA
:102EE0004FF0000B06E000BF706808B100BF00BFE4
:102EF00000BF7760B07F10F0010F41D0BBF1000F31
:102F00003BD0706818B170684068808810B14FF08D
:102F1000000B32E02546D4F800900BE0D9F80440CD
:102F2000E888A188884202D04FF0000B05E02546D2
:102F3000D4F80090B9F1000FF0D100BFBBF1000F41
:102F40001BD000BF706808B900BF00BF00BF00BF42
:102F500070684068A04201D100BF00BF00BF00BF41
:102F6000206808B100BF00BF00BF00BFE088B18B80
:102F7000884201D000BF00BF00BF5846BDE8FC9F9B
:102F80000020FBE7384600F0FCFD05490988081AD7
:102F900003490880384600F0BCFE0020EEE7000040
:102FA000C000002070B504460D4609480068A042E4
:102FB00003D107492068086006E000BF0DB900BFD3
:102FC00000BF00BF20682860204600F0E1F970BD16
:102FD000BC00002070B505460E461649088900F071
:102FE00059FA04469CB93146284600F095F8B0429B
:102FF00004DB1049088900F04DFA04463CB90E483C
:10300000808F401C81B20C488187002070BD202138
:103010002046FDF775F90320E07708480068206036
:10302000064804601422294604F10800FDF723F93C
:103030002046EBE7C276000816190020BC000020ED
:103040002DE9F04704468846002500BFA04501D180
:1030500000BF00BF00BFB8F1000F07D000BFD8F815
:103060000000A04201D000BF00BF00BF6068D0F8E0
:103070000490B9F80400F0B96768D9F800006060FE
:10308000142204F108017868FDF7F5F801213846AB
:10309000FFF7C8F9384600F074FD064600BFA819CE
:1030A000B0F5803F01DB00BF00BF00BFA81985B2AB
:1030B000384600F02EFE676816E0D7F80490BA464E
:1030C000D9F80070504600F05CFD064600BFA81914
:1030D000B0F5803F01DB00BF00BF00BFA81985B27B
:1030E000504600F016FE00BF002FE6D141462046B4
:1030F000FFF758FF00BF07480088A84201DA00BF69
:1031000000BF00BF03480088401B024908802846D2
:10311000BDE8F087C00000202DE9F84F054689463C
:10312000002700BF0026B2460020009083461B48BF
:10313000046821E06069E968884207D1A0692969CB
:10314000884203D1A089A988884201D0012000E0EB
:10315000002068B10BF1010B1EB92646CDF800A086
:1031600006E0E07FF17F884202DC2646CDF800A031
:10317000206800B1A2462468002CDBD12EB1304675
:103180000099FFF75DFF804647444F4502DABBF1E7
:10319000010FC7DC3846BDE8F88F0000BC000020F6
:1031A00070B505462C4600BF0CB900BF00BF00BF7C
:1031B00000BFAC4201D000BF00BF00BF606910B1CA
:1031C000606900F0A6FD2046FFF710FE70BD00000C
:1031D00070B50446062084F824001B48007884F863
:1031E0002500194841782620015517488178272065
:1031F00001551548C1782820015513480179292027
:103200000155114841792A20015540F2DC50608473
:103210000E2084F82B0002220C490D48FDF77CF9A2
:1032200004220C490C48FDF72FF9002506E00A4955
:1032300001EB05100121FDF751F96D1C042DF6DBA2
:10324000FDF7F4FB70BD0000D0000020003300202B
:10325000201B0020401B0020E01A00202DE9F04731
:103260008146002600250E48006887B2DFF83480CA
:1032700003223946042000F041FB054665B12C4687
:1032800008E0628908EB06016068FCF7F4FF6089DA
:1032900006442468002CF4D12846BDE8F0870000DD
:1032A000BC440020E03E00202DE9F04180460E465F
:1032B0000025FDF775F90746344607E0628978195D
:1032C0006168FCF7D8FF608905442468002CF5D1BB
:1032D000A8B2FDF70DFC0020BDE8F081014608060C
:1032E00001F47F4240EA022001F47F0240EA12200A
:1032F00040EA116070470146C8B20A0A42EA00205B
:10330000704700B503461846FFF7E8FF00BD00B55B
:1033100003461846FFF7EFFF00BDF8B505460A461D
:103320002B4600200090002103F0010636B1002A50
:1033300004DD13F8010B8DF80100521E1C4603E05A
:1033400034F8027B3944921E012AF9DC002A02DD9E
:1033500020788DF80000BDF80000014488B200EB31
:10336000114188B200EB114126B1C8B2C1F3072761
:1033700047EA002188B2F8BDFEF7C6F8FDF7D6FD92
:1033800003E002480068FDF7FFFDFAE700000020B7
:1033900070B5054605B970BD00BF002008B100BF7B
:1033A00000BF00BF00BF1E480068854203D31D4810
:1033B0000068854201D300BF00BF00BF1848006805
:1033C000854203D317480068854208D31648B0F8F1
:1033D000B000401C81B21448A0F8B010DBE7AC1F6D
:1033E00000BF207908B900BF00BF00BF00202071D6
:1033F0000E480068844201D20C48046021880848C5
:103400000068201A091A0848B0F8AC00401A81B2C6
:103410000548A0F8AC10204600F0D6FD00BFBAE782
:103420004C000020500000201619002054000020FD
:1034300000BF00BF1249134A1160114608684FF4DB
:10344000C05101800021418001711146096801F5D8
:10345000C0510D4A11600121126811714FF4C05121
:10346000094A12681180084A1268518005490968A2
:10347000064A11604FF4C0520549A1F8AA207047CE
:10348000080100204C0000205000002054000020C3
:1034900016190020F0B502460AB90020F0BD92B21C
:1034A0000C2A00D20C22B2F5C05F01D90020F5E74A
:1034B00054480068544E3668801B83B293E05248EB
:1034C0000068C1180879C0BB0E88981D301A904258
:1034D00033D30E88981D361A02F1120086422DD37E
:1034E000981D104485B24848006844190020207196
:1034F0000888208063800D80012008712088B0F545
:10350000C05F04D02088404E36683044458000BFFC
:103510003E48B0F8AC60901D304486B23B48A0F8FD
:10352000AC60B0F8AE60B0F8AC00864204DA374860
:10353000B0F8AC60A0F8AE601CE051E0012008716A
:1035400000BF0E8830480068081A361A2F48B0F8B5
:10355000AC00304486B22D48A0F8AC60B0F8AE6044
:10356000B0F8AC00864204DA2848B0F8AC60A0F8A5
:10357000AE6000BF2348006881421CD1214E3068F4
:1035800003E00688204F3F68F01906791EB1204EEF
:103590003668B042F5D11B4E306000BF36681C4F14
:1035A0003F68BE4205D0174E366836790EB100BF6F
:1035B00000BF00BF00BF00BF881D1044144E366816
:1035C000B04201D900BF00BF00BF00BF00BF00BFB5
:1035D00000BF002008B100BF00BF00BF881D5DE72D
:1035E00009480068C35AC2F5C05098423FF667AF19
:1035F0000648B0F8A800401C044EA6F8A800002019
:103600004CE70000540000204C0000201619002058
:10361000500000202DE9F04106460A4692B20C2ADD
:1036200000D20C22B2F5C05F02D90020BDE8F081C3
:1036300000BF56480068864203D35548006886425A
:1036400001D300BF00BF00BF50480068864203D3CB
:103650004F48006886420AD34E48B0F8B000401C7C
:103660001FFA80FC4B48A0F8B0C03046DEE7B51F1B
:1036700046480068281A87B22888C01B801F84B279
:1036800000BFA24201DD00BF00BF00BFA24201DDBA
:103690000020CBE7A24201D13046C7E72888DFF8F7
:1036A000ECC0DCF800C000EB0C010879F0BB088826
:1036B00007F1060C94441FFA8CF3DFF8DCC0DCF849
:1036C00000C08C4508D1DFF8C4C0DCF800C09C44C1
:1036D000DFF8C480C8F800C0DFF8B0C0DCF800C074
:1036E0000CEB03014FF0000C81F804C008804F8000
:1036F0002B80B1F800C0BCF5C05F08D0B1F800C0A5
:10370000DFF88880D8F80080C444ACF80230DFF8D5
:1037100084C0BCF8ACC0A4EB0208ACEB080C1FFAE8
:103720008CF8DFF870C0ACF8AC802DE0FFE702F158
:103730001200A04228D8B81D104483B21348006874
:10374000C11815480068814201D213480160002069
:103750000871288808804F802B800888B0F5C05FEA
:1037600006D00888DFF824C0DCF800C0604443803D
:103770000848B0F8AC00A4EB020CA0EB0C001FFA58
:1037800080FC0448A0F8ACC030464FE74C00002055
:103790005000002016190020540000202DE9F047A9
:1037A00004460E4617469846DDE9095ADDF8209092
:1037B00000BF0DB900BF00BF00BF00206060A06067
:1037C000E06084F82B00032084F82000C4F81C90EB
:1037D0000E48007884F82E000C480078401C0B49F5
:1037E0000870C4F810A043463A463146204600F01F
:1037F00023F82046A84710B10020BDE8F087044810
:1038000000682060024804602046F6E7600000205F
:103810005800002070B504460D4615F0010F0AD07F
:10382000606840B194F82B0010F0080F03D0211D00
:103830002046FEF7BDFA70BD2DE9F04106460F4661
:1038400014461D462146304600F03CF829463046D5
:1038500000F00CF83946304600F00EF8BDE8F08173
:1038600001490860704700005C00002009B900228F
:1038700000E00A68C260704738B505460C4614B1CE
:103880002068009002E00E48006800900098696887
:10389000884201D1012000E0002080B92146281D86
:1038A00001F098FC2146281D03F0ECFE0CB9002025
:1038B00000E02068686001212846FFF7ABFF38BDB3
:1038C0002477000809B9002200E00A688260704786
:1038D00010B5044694F82B0010F0010F0DD114F828
:1038E0002B0F40F00100207014F82B0910F0040F8A
:1038F00003D003212046FFF78DFF10BD2DE9F05FB7
:1039000083460F469146BBF1050F0ED2DFE80BF060
:10391000030507090B0036260EE022260CE00E26D2
:103920000AE0002608E0002606E000BF00BF00BF56
:1039300000BF0020BDE8F09F00BFB9F1000F7ED0AE
:10394000B9F1010F7CD0B9F1020F7AD0B9F1030FB0
:1039500078D15D49C889FFF79DFD04461CB900F088
:1039600093FA0020E6E784F80C900020206006F12E
:1039700010002044606000BF00BF00BF278140F2FC
:103980004E21881BB84201D9384602E040F24E2150
:10399000881B608100BF61896068014404F25E2079
:1039A000814201D900BF00BF00BF00BF40F24E21DD
:1039B000881B01D100BF00BF00BF0120E081A246EB
:1039C0006089A7EB000845E03F49C889FFF762FD21
:1039D000054635B900F058FA204600F09AF9002063
:1039E000A8E785F80C90002068732860CAF800509A
:1039F00000BF4FF6FF70804501DB00BF00BF00BF76
:103A0000A5F808801FFA88F040F24E21884202D2C1
:103A10001FFA88F001E040F24E20688105F11000A5
:103A2000686000BF00BF00BF00BF618960680144DB
:103A300004F25E20814201D900BF00BF03E00DE027
:103A400024E024E033E000BF0120E8816889A8EB8E
:103A50000008AA46B8F1000FB6DC2EE006F110020D
:103A6000D11988B2FFF716FD04460CB9002061E7B2
:103A700004F11000304460602781678100202060DD
:103A800084F80C9000BF00BF00BF16E000BF0E49D5
:103A90008889FFF7FFFC04460CB900204AE70020A4
:103AA000606027816781206084F80C9005E000BF8A
:103AB00000BF00BF00BF00203CE700BF0120E08145
:103AC00000206073204635E7C2760008F0B5044652
:103AD0000D46DDE90567052C0ED2DFE804F003058D
:103AE00007090B0036210DE022210BE00E2109E031
:103AF000002107E0002105E000BF00BF00BF00BFBC
:103B00000020F0BD00BF4819B84201D90020F8E7F5
:103B10000020186016B18819586001E00020586034
:103B2000022058731D815D811A730120D8811846C7
:103B3000E7E710B5024600BF02B111B900BF00BFF0
:103B400010BD00BF104604E003890C8923440381A3
:103B500000680368002BF7D100BF03894489A342A2
:103B600001D000BF00BF00BF00BF03680BB100BFA2
:103B700000BF00BF03890C8923440381016000BF9B
:103B8000DEE70146002002E0421CD0B209680029AD
:103B9000FAD170472DE9F04105460C460026002772
:103BA00000BF25B11CB128892189884205DA00BFF0
:103BB00000BF6FF00E00BDE8F08100BF00BF688954
:103BC000801B6189C91B884204DB6089C01B1FFA06
:103BD00080F803E06889801B1FFA80F86268D119B9
:103BE0006A6890194246FCF746FB06EB080086B26D
:103BF00007EB080087B200BF6889B04201DA00BF56
:103C000000BF00BF00BF6089B84201DA00BF00BF3B
:103C100000BF6089B84201DC002724686889B0428F
:103C20000AD100262D6800BF2DB924B100BF00BF06
:103C30006FF00E00BFE700BF64B160892189884240
:103C400008D100BF206820B100BF00BF6FF00500A1
:103C5000B1E700BF65B168892989884208D100BFF2
:103C6000286820B100BF00BF6FF00500A3E700BFC8
:103C7000002CA4D100209EE72DE9F05F8046894604
:103C800016461D464FF0000B00BFB8F1000F04D1DF
:103C900000BF00BF0020BDE8F09F00BF00BFB9F12A
:103CA000000F03D100BF00BF0020F4E700BF4FF0BA
:103CB000000AB8F1000F02D0B9F1000F01D10020C5
:103CC000E9E7444620E035B16089A84203DC608919
:103CD000281A85B217E06089401B87B2B74200DD21
:103CE00037466268511909EB0A003A46FCF7C3FAF5
:103CF0000BEB07001FFA80FB0AEB07001FFA80FAA4
:103D0000F01B86B2002524680EB1002CDBD158468A
:103D1000C1E72DE9F04704463CB900BF0CB900BF2C
:103D200000BF00BF0020BDE8F08700BF207B50B17E
:103D3000207B012807D0207B022804D0207B032889
:103D400001D000BF00BF00BF002639E000BFE089FE
:103D5000002801DC00BF00BF00BFE089401E1FFA41
:103D600080F8A4F80E80B8F1000F27D12768257BD2
:103D7000607B10F0020F0CD0A14600BFD9F81000F4
:103D800008B900BF00BF00BF2046D9F8101088470F
:103D900010E0032D03D12046FFF7FAFA0AE0012DC7
:103DA00001D0022D03D12046FFF7F2FA02E02046AF
:103DB000FFF7EEFA701CC6B23C4600E0002400BFDC
:103DC000002CC3D13046AEE770B504460D46002244
:103DD0002946204600F00AF870BD70B504460D462D
:103DE00001222946204600F001F870BDF0B50346D7
:103DF000154600BF0BB900BF00BF00BF01B10BB932
:103E00000020F0BD00290ADA484284B200BF588978
:103E1000A04203DA00BF00BF0120F2E700E08CB24D
:103E20001A7B5E680AB1032A0AD15868401A5860A2
:103E300003F110005F6887421ED25E600120E0E758
:103E4000022A01D0012A11D1002906DA5889A0429C
:103E500003DB5868401A58600EE0002904DD1DB1EC
:103E60005868401A586007E00120CAE700BF00BF49
:103E700000BF00BF0120C4E7588908445881188951
:103E8000084418810020BCE70120014908707047F0
:103E9000610000202DE9F04105460F4600BF0DB935
:103EA00000BF00BF00BF00BF287B032809D0287BCC
:103EB000012806D0287B20B1287B022801D000BF32
:103EC00000BF00BF2889B84201DCBDE8F081288925
:103ED000A7EB00083E462C4613E06089301A86B2F4
:103EE00000BF4FF6FF70804501DB00BF00BF00BF81
:103EF000208940442081246800BF0CB900BF00BF66
:103F000000BF6089B042E8DB207B98B96089B0428D
:103F100010D0607B10F0020F0CD16068001B3044A1
:103F200081B22046FFF776FB044600BF0CB900BF04
:103F300000BF00BF668160892081206810B12068C1
:103F4000FFF7E7FE0020206000BFBEE710B1C18987
:103F5000491CC181704770B502460B4600201860AD
:103F600082B3106870B354891046116804E04D891B
:103F70002544ACB20846096821B14D892544ADB24B
:103F8000A542F4DC00250560D9B110460EE0058994
:103F90000E89AD1B058100BF05682DB905894689CD
:103FA000B54201D000BF00BF00BF00680028EED1BD
:103FB000557B15F0200F03D04D7B45F020054D7348
:103FC000196000BF70BD000030B500BF284B1B68F2
:103FD000984201D200BF00BF00BF00BF254B1B6845
:103FE000984201D300BF00BF00BF00BF03790BB1EF
:103FF00000BF00BF00BF00BF0388B3F5C05F01D999
:1040000000BF00BF00BF0388194C246819198842FB
:1040100015D00B799BB9174B1B6899420FD0164BE3
:104020001B688B4201D1144B18600B880380104B26
:104030001B68C31A0C880E4D2D682C44638043887E
:104040000B4C24681A19824211D013797BB90A4BA0
:104050001B68834201D1084B1A6003881380044B0C
:104060001B68D31A0488024D2D682C44638030BD30
:104070004C00002050000020540000202DE9FC5F7F
:1040800004460E4600BF207E012801D100BF00BFBC
:1040900000BF207E0A2807D121463A4801F004FCDF
:1040A0002046FFF775F96AE04FF0000AD346A76D86
:1040B000D4F82880D4F89C50D4F81090207E40BBCF
:1040C000608B30B300BF30480068A04205D12E4855
:1040D0000068C0682C49086018E02B4800682B492C
:1040E00008600EE029480068C068A04204D1274952
:1040F000E0680968C86008E024480068C06823498F
:104100000860224800680028ECD100BF0020E06071
:104110000BE0B246B4F81AB000BF21461C4801F0CB
:10412000C3FB01201B49087000BFD4F8800018B100
:10413000D4F8800002F02EFEE06F10B1E06F02F0C4
:1041400029FED4F8840018B1D4F8840002F022FECD
:10415000BAF1000F08D0A38BCDE900B3231D22468E
:104160004146384602F098FD2046FFF711F900BF9E
:104170001DB16FF00B014846A84700BF00BFBDE866
:10418000FC9F00007C0000207000002080000020C8
:10419000780000208400002010B50446012120464C
:1041A000FFF76CFF10BD000070B506463F49488818
:1041B000FFF770F904462CBB00F050FF3B494888DC
:1041C000FFF768F90446E4B9092000F01BFF3749FE
:1041D0004888FFF75FF9044694B9082000F012FF01
:1041E00032494888FFF756F9044644B9304600F092
:1041F000DFFE2E494888FFF74DF9044600BF00BF97
:1042000000BF00BFF4B3B4212046FCF779F804F1F5
:10421000080466744FF4C950E0664FF00000A4F83B
:10422000700041F2F040A06260624FF0000084F83C
:10423000A70084F8A80060704FF0FF00A0704FF452
:10424000067060864FF00600A4F840004FF00000B2
:10425000A0874FF00600E0874FF0FF3020864FF038
:104260000100A06400F0F6FF0546A56525656564BC
:10427000E5650F480068E0610E480078A0760020F0
:10428000207600E010E00C48C4F888000B48C4F821
:1042900098000B48C4F89C000920C4F8A000002036
:1042A00084F8A600A4F10804204670BDC276000878
:1042B0006C00002086000020D56A000800DD6D003B
:1042C000F824010001490160704700000103030068
:1042D00010B50446207E012803D0E08B40F010008A
:1042E000E0830121204600F001F810BD7CB50446B2
:1042F0000E46AEB3207E042802D0207E07286AD165
:10430000D4F8880058B9E18BE06A11F4807F02D0BC
:1043100041F2F04101E041F2F04188425BD000BF40
:10432000E08B10F0100F01D100BF00BF00BFA38BC6
:10433000628BCDE90023231D2246A16AA06D02F005
:10434000ABFC204601F084FA00BF00BF5C48006867
:10435000A04206D15A480068C0685949086019E06F
:1043600039E057480068574908600EE05548006832
:10437000C068A04204D15349E0680968C86008E0F9
:1043800050480068C0684F4908604E4800680028DF
:10439000ECD100BF0020E06000BF01204A49087056
:1043A00000BF207E04280AD10A20207600BF47489B
:1043B0000068E0604548046002F03EFF09E04448C0
:1043C0000068A04202D102F09FFF02E02046FEF703
:1043D000DFFF00207CBD207E082865D2DFE800F0EA
:1043E00004333D4C5464645C0025608B30B300BFE3
:1043F00038480068A04205D136480068C068354991
:10440000086018E0334800682E4908600EE02D4827
:104410000068C068A04204D12A49E0680968C86001
:1044200008E028480068C0682649086025480068F8
:104430000028ECD100BF0020E06000BF2046FEF75E
:10444000A7FF002433E000252146234801F02CFA81
:104450002046FEF79DFF002429E0002500BF2146ED
:10446000174801F021FA01201749087000BF2046C3
:10447000FEF78EFF00241AE0204602F0DEFC05461F
:104480000DB90520207612E0204602F0D6FC054644
:104490000DB9052020760AE0204602F0CEFC054644
:1044A0000DB90920207602E00025002400BF00BFDE
:1044B0001CB115B9204600F023FF28468AE700000A
:1044C0007800002080000020840000207C00002074
:1044D000AC00002070000020740000202DE9F05F87
:1044E00080460E4691469A460A9F17F0010F01D06A
:1044F000042000E0002017F0020F01D0002100E0AE
:104500000021084417F0080F01D0042100E0002129
:104510000844C5B22849C888FEF7BCFF040005D18D
:104520003046FFF7F6FB0020BDE8F09FA7720020A1
:104530002060666000BF3089A84201DA00BF00BF7A
:1045400000BF3089401B208114213046FFF73CFC1E
:1045500060B11A48B0F8A400401C81B21748A0F816
:10456000A410204602F00AFC0020DDE760684068E5
:10457000E060B8F81A00FEF7BEFEE1680880B8F8FF
:104580001C00FEF7B8FEE16848805046FEF7A6FE24
:10459000E1684860AB46E91705EB91718910491D48
:1045A00049EA013188B2FEF7A6FEE1688881002061
:1045B000E16848822046B7E7C27600081619002055
:1045C0002DE9F04105460E463046FEF7A3FB804636
:1045D000B8F1000F02D12846BDE8F081B8F82200FA
:1045E00004B244B1A4F1280087B2BD4201DA2846E2
:1045F00000E0384685B22846EEE700002DE9F84392
:1046000004460D460027B94600BF15F0030F01D13F
:1046100000BF00BF00BFB4F87800282805DAB4F85E
:1046200078004FF6FC71884212D915F0010F0FD1B6
:104630005A48B0F89C00401C81B25848A0F89C1021
:10464000E08B40F08000E0834FF0FF30BDE8F8835E
:1046500015F0020F09D00127207E032803D1E08B3B
:1046600010F4807F01D047F0080717F0010F01D048
:10467000042000E0002017F0020F01D0002100E02C
:104680000021084417F0080F01D0042100E00021A8
:10469000084400F0FF09606F50B94048B0F89C0032
:1046A000401C81B23D48A0F89C104FF0FF30CDE790
:1046B000002249461046FFF721F95FEA00080ED1B3
:1046C000E08B40F08000E0833448B0F89C00401C50
:1046D00081B23248A0F89C104FF0FF30B6E700BF1F
:1046E000B8F80A00484501DA00BF00BF00BF0097D4
:1046F0002A4641462046636EFFF7F0FE06000DD1C4
:10470000E08B40F08000E0832448B0F89C00401C1F
:1047100081B22248A0F89C10701E97E700BF00BF2E
:1047200000BF00BF308908B100BF00BF00BFE06F0D
:1047300008B9E66707E0E06F00E00068016800295B
:10474000FBD1066000BF0020A4F87A0015F0020F2C
:1047500002D115F0010F05D0606E401C6066606FDD
:10476000401E606715F0010F03D0E08B40F0200081
:10477000E0837068FFF705FA34F8781F084420805A
:1047800034F8780940B100BFD4F8800018B9E06F60
:1047900008B900BF00BF00BF002057E7161900206E
:1047A00070B51C480078401C1A49087000BF1A48B0
:1047B00004682BE094F8220016490978884224D036
:1047C0001448007884F82200E08B10F0010F0CD020
:1047D00000BFE08B40F00200E08300BF204600F005
:1047E0008FFDE08B20F00300E083E568D4F88800BB
:1047F00048B1002009490870204601F093FB0748A2
:10480000007800B1D3E72C4600E0E468002CD1D159
:1048100070BD000086000020780000208400002089
:104820001148006828B11148008811490988884258
:104830000BDA1048006800F114010C480288008867
:10484000401C0A4B1880885C704708480288008822
:10485000401C064B188006480088101AC1B2024856
:104860000068405CF0E70000900000209400002009
:104870008C000020880000202DE9FC5F0546FD48E3
:10488000B0F89200401C81B2FA48A0F89210FA49A0
:10489000686808606889142808D2F648B0F89A0059
:1048A000401C81B2F348A0F89A101CE3F34A116847
:1048B0005069FDF758FE28B9F048406900F0F00053
:1048C000E02808D1EB48B0F8A000401C81B2E948CC
:1048D000A0F8A01007E3E94B143300932A891B1FAB
:1048E00006212846FEF768FA8246BAF1000F08D082
:1048F000E048B0F89800401C81B2DE48A0F898105B
:10490000F1E2DD4909688889FEF701FD4FEA2038A8
:104910001420C0EB8800DA4908800020D9490860DB
:104920006889B0EB880F5ADA688914284EDBD448BE
:10493000B0F800B06FF013012846FFF745FA00BF4A
:104940006889CF490988884201DD00BF00BF00BFE8
:1049500000BF286808B900BF00BF00BF6889C84908
:10496000088008460088834529DD084600884042C3
:1049700001B22846FFF728FA019000BF019808B15C
:1049800000BF00BF00BF28684068BE490860BC483F
:104990000088ABEB00000FFA80FACAF1000109B2FF
:1049A0002868FFF711FA019000BF019808B100BF15
:1049B00000BF00BF2889A0EB0A00288100BF00BF0C
:1049C000688908B100BF00BF00BF0EE0A948B0F879
:1049D0009A00401C81B2A748A0F89A1083E24FEADF
:1049E000880041422846FFF7EFF9A3490968088883
:1049F000FEF78DFCA049096808809F49096848882E
:104A0000FEF785FC9C49096848809B49096848680D
:104A1000FEF777FC9849096848609B490860964909
:104A200009688868FEF76DFC9349096888609749B2
:104A3000086091490968C889FEF769FC8E490968D0
:104A4000C8818D4909688889FEF761FC00F03F0044
:104A50008F4908702889097811F0030F01D00121CE
:104A600000E0002108448B49088000278A48046838
:104A70004BE000BF207E08B900BF00BF00BF00BFF1
:104A8000207E0A2801D100BF00BF00BF00BF207EEA
:104A9000012801D100BF00BF00BFA08B7649096883
:104AA000098888422FD1608B7349096849888842F8
:104AB00029D1724960680969884224D16F49206808
:104AC000496988421FD100BFE068A04201D100BF00
:104AD00000BF00BF3FB1E068F8606F480068E06069
:104AE0006D48046007E06348B0F8A600401C81B23E
:104AF0006048A0F8A61000BFE068A04201D100BF46
:104B000000BF00BF03E02746E468002CB1D100BF1E
:104B1000D4BB6248046825E000BF207E0A2801D08B
:104B200000BF00BF00BFA08B5349096809888842B5
:104B300017D1608B504909684988884211D14F4983
:104B40006068096988420CD14C49206849698842EB
:104B500007D1204602F072FB2846FFF7DAF8BDE8DD
:104B6000FC9FE468002CD7D100274D48066812E06E
:104B7000708B41490968498888420AD13F493068A9
:104B80004969884201D108E021E00EB1306800B9DE
:104B900003E03746F668002EEAD100BFBEB13FB150
:104BA000F068F8603E480068F0603D48066007E045
:104BB0003048B0F8A600401C81B22E48A0F8A610DC
:104BC000304600F069FA2846FFF7A3F8C7E77CB340
:104BD0000020344908602889088108464560264835
:104BE0000068C860002030490860304908702848D3
:104BF000007810F0080F03D0687B40F00100687364
:104C0000D4F88800A8B1204601F08CF90C3006D009
:104C1000D4F8880068B11F480088002809DD1548CD
:104C2000B0F89600401C81B21248A0F896101AE124
:104C300029E11F480460204600F090FE814619F1EA
:104C40000C0016D01948007810F0080F32D000BFC1
:104C5000D4F89C0028B16FF00C01D4F89C20206996
:104C6000904700BF21460C4800F01EFE2046FEF78C
:104C70008FFBF7E01619002088000020D8190020CB
:104C80008C00002090000020980000209C00002054
:104C9000A0000020A2000020780000207C0000205E
:104CA00074000020C8190020A8000020A4000020E3
:104CB000AC0000204FF00009206F28B3D4F870B08A
:104CC0001EE04FF6FF70834501D2584601E04FF6D3
:104CD000FF701FFA80FAABEB0A0B00BFD4F88C0010
:104CE00038B152462146D4F88C3020699847814625
:104CF00001E04FF0000900BF19F10C0000D1B2E053
:104D0000BBF1000FDDD100BF7D48007810F0100F1F
:104D100016D0E08B10F0100F0AD100BFD4F89C0021
:104D200028B16FF00D01D4F89C202069904700BF96
:104D30002146744800F0B8FD2046FEF729FB92E0BA
:104D400051E00020019001A96F480068FFF703F9C6
:104D500000BFD4F8880008B100BF00BF00BFE08BDF
:104D600010F0100F0CD068480068FEF7D2FF0198D1
:104D700010B10198FEF7CDFF2046FFF70DFA72E063
:104D800000BFD4F8900048B100235F49D4F890C028
:104D900020690A682146E047814607E000235A4817
:104DA00021460268184601F095FE814600BF19F1C0
:104DB0000C0005D1019810B10198FEF7AAFF52E04E
:104DC000B9F1000F0BD0019820B14F48019900684C
:104DD000FEF7AFFE4C480068C4F8880007E04A4977
:104DE0000198086000BF484800680028A9D100BFAA
:104DF0004348007810F0200F2ED0D4F8880040B13E
:104E0000D4F88800407B40F02000D4F88810487324
:104E100022E0E18BE06A11F4807F02D041F2F041A0
:104E200001E041F2F041884202D0E06A401CE062B9
:104E300000BFD4F8900040B100231A462146D4F8B0
:104E400090C02069E047814601E04FF0000900BFB3
:104E500019F10C0000D106E000202C490860204622
:104E600000F04EFA00BF002028490860264908607B
:104E700027484068A0B326494868FEF74AFF00204B
:104E8000234948602CE0234909688889FEF73FFAE6
:104E900010F0040F21D12048B0F8A000401C81B2CE
:104EA0001D48A0F8A010B0F89600401C81B21A4826
:104EB000A0F89610174800680388164800684288D2
:104EC0001648CDE900230068154A12888118154B51
:104ED0001A1D1548006801F0DFFE2846FEF719FF8D
:104EE00000BF00BF3BE60C48B0F89600401C81B202
:104EF0000948A0F896102846FEF70BFF00BF2EE6E3
:104F0000A400002078000020A8000020AC000020B1
:104F1000C8190020880000201619002098000020E1
:104F2000A2000020E81900209C0000202DE9FE438B
:104F30000446A16D481EFEF7D1F9804603460022C3
:104F40001146204600F0DCFA05461DB94FF0FF304F
:104F5000BDE8FE83201DFDF7DDFE064616B96FF0A5
:104F600003071DE0D5F80480231D00932A892346FA
:104F700006212846FDF720FFA8F810000B48B0F8DE
:104F80009000401C0949A1F89000062200218DE8FC
:104F90004600A37A221D21462846FDF709FD074653
:104FA0002846FEF7B6FE3846D2E700001619002064
:104FB0002DE9F04106464FF07F08002700250F48F5
:104FC000046813E0607EB0420FDC607E40450CDC7C
:104FD0000B49606A0968081AB84206D30849606A32
:104FE00009680F1A254694F81980E468002CE9D165
:104FF00015B12846FFF7D0F8BDE8F0817800002011
:105000006C0000202DE9F041054600BF082D03D0BB
:10501000092D01D000BF00BF00BF002700260D48AA
:1050200004680EE0207EA8420AD10B49606A096834
:10503000081AB84204D30849606A09680F1A26465C
:10504000E468002CEED11EB100213046FFF716F8BF
:10505000BDE8F081780000206C00002070B50026CB
:1050600000250B4804680BE00A49606A0968081AC1
:10507000B04204D30749606A09680E1A2546E468FD
:10508000002CF1D115B12846FFF786F870BD00005D
:105090007C0000206C0000207CB505464448007868
:1050A00010F0040F01D000207CBD4148007810F0C2
:1050B000100F13D03F48006803883E4800684288BC
:1050C0003D48CDE9002300683C4A128881183C4BDA
:1050D0001A1D3C48006801F0DFFD67E034480078A5
:1050E00010F0020F62D0687EFFF75EF8044654B9F4
:1050F0003548B0F89C00401C81B23348A0F89C10A1
:105100004FF0FF30D0E72E481038406920602C481F
:10511000103800696060688B6083264800680088EA
:10512000A0830320207624480068401CA062A06A67
:10513000606321480068401EE06528692061686955
:105140006061287A00F00C00207200BF00BF1F4889
:105150000068E0601D48046002F06EF800BF0120A6
:105160001B49087000BF204600F0D0FA11480068C3
:10517000C08994F8AF108840A066A06EE066A06E6B
:105180006065608F211DFFF71BFA608712212046A2
:10519000FFF734FA06462EB100212046FEF76EFFD7
:1051A000304681E7204600F0ABF87DE700207BE742
:1051B000A00000208800002098000020A20000200D
:1051C000E81900209C00002016190020780000201B
:1051D000840000202DE9F04106460D460F48016885
:1051E000304600F021F80E480168304600F01CF807
:1051F0008DB1286878B10B4804680AE0E7683CB1D3
:10520000206828B120683168884201D12868206070
:105210003C46002CF2D1BDE8F0810000780000206F
:1052200070000020740000202DE9F04105460E4674
:1052300034460AE020682968884205D1E76820469C
:10524000FEF7AAFF3C4600E0E468002CF2D1BDE87E
:10525000F0810000044800680449096808440249D4
:105260000860084600687047680000206C00002055
:1052700070B505460C46E9688889FEF748F810F0D5
:10528000010F04D0204601F085FD002433E013E037
:10529000E1688889FEF73BF810F0010F07D0012084
:1052A000FEF729F8E96889890843E9688881264674
:1052B0002468304601F062FD4CB1E0684068218905
:1052C000084429890D4A12681144081AE0D594B19E
:1052D00028890A4909680844E1684968401A002891
:1052E00009DDE068406805490968401A2881298974
:1052F0006868FEF7CFFD2C6070BD000098000020AC
:105300002DE9F05F044600BF207E012801D100BFD7
:1053100000BF00BF79480068A04202D10020BDE86C
:10532000F09F216DA06E884201D2A06E00E0206D3A
:105330008246E56FE08B10F0020F0ED04DB1E968A8
:105340004868FDF7DEFFE16C401A298908445045A2
:1053500003D9204601F02AFDE1E7D4F8806026B1A8
:1053600000E0366830680028FBD1AEE000BFE96895
:105370008889FDF7CCFF10F0040F01D000BF00BFFB
:1053800000BFD4F88000E8B1E08B10F0440F19D1D1
:10539000E06F38B1E06F0068A0B9E06F0089618FFD
:1053A00088420FDA4FF6FF71606F884201D2606F5A
:1053B00001E04FF6FF700004000C03D0B4F8780051
:1053C000282801DB012000E0002020B9E08B10F04C
:1053D000A00F00D185E0207E022807D01020FDF725
:1053E0008AFFE96889890843E96888812146284657
:1053F00000F0DAF88146B9F1000F05D0E08B40F0FB
:105400008000E08348468AE72868E067207E02281B
:1054100003D0E08B20F00300E083E9684868FDF7E3
:1054200070FF0746E9688889FDF771FF10F0030FE8
:1054300001D0012000E000202989084407EB000882
:10544000A06DB0EB080001D5C4F85880E9688889E0
:10545000FDF75DFF10F0030F01D0012000E00020F8
:10546000298940182DD000202860D4F8800018B970
:10547000C4F880502E4627E0E9684868FDF741FFF0
:105480000746F1684868FDF73CFF381A16D504F165
:10549000800700E03F68386860B13968C9684868CB
:1054A000FDF72FFF8346E9684868FDF72AFFBBEB4D
:1054B0000000EFD4386828603D6005E0356036684C
:1054C00002E0284601F05AFCE56F55B1E9684868EA
:1054D000FDF717FFE16C401A2989084450457FF613
:1054E00045AF00BFE06F10B90020A4F87A00E08B50
:1054F00020F08000E083002011E70000AC000020D5
:105500002DE9F04704460E469046994606F11400F0
:10551000404481B200220120FEF7F0F907468FB324
:1055200000BF798906F11400814201DA00BF00BF93
:1055300000BF7D68608BFDF7DEFE2880A08BFDF745
:10554000DAFE6880C5F80490A06AFDF7C7FEA8607F
:10555000B246F11706EB91718910491D102242EAFB
:10556000013188B2FDF7C7FEA88194F8B020216B05
:10557000D1404FF6FF72914205D294F8B020216BD2
:10558000D14002E00CE04FF6FF7188B2FDF7B3FEA8
:10559000E881002028826882216BA06A0844606349
:1055A0003846BDE8F08700002DE9FE4F05460C4661
:1055B000A06AFDF793FEE9688860A87A10F0080FEA
:1055C0000ED04FF6FF72216B914201D2216B01E0A8
:1055D0004FF6FF7188B2FDF78EFEE968C88113E0CF
:1055E00094F8B020216BD1404FF6FF72914204D263
:1055F00094F8B020216BD14001E04FF6FF7188B2E2
:10560000FDF779FEE968C881216BA06A08446063F0
:10561000E86800F11407A87A10F0010F0CD0211DE2
:105620004FF40670FEF7CCFF82464AF00170FDF79A
:1056300055FE38603F1D00BFA87A10F0080F03D058
:105640003846FEF73FFE3F1DB4F93800401C00D13C
:105650002087201DFDF75EFB06461EB96FF0030094
:10566000BDE8FE8F0CB1206858B90EB1301D00E0C6
:105670000020014611B96FF00300F1E708682060CF
:1056800000BFE06B38B91F480068E063E96848680C
:10569000FDF737FE20646968E8684968401A1FFA18
:1056A00080F868684089A0EB0800696848816868EC
:1056B0000089A0EB0800696808816968E8684860AB
:1056C0000020E9680882231D009369680A8908465A
:1056D00023460621FDF770FBE96808820A48B0F806
:1056E0009000401C0849A1F890000622617A8DE8DC
:1056F0004600A37A221D21466868FDF759F98146C4
:105700004846ADE76C000020161900202DE9F04155
:1057100004464C4909688889FDF7F9FD0521B1EB7C
:10572000203F77DA474909688889FDF7F0FD0521B0
:10573000C1EB20308004070C00204349088079E049
:10574000FFF76EF88046B8F1000F09D0B8F1010FED
:1057500008D0B8F1020F06D0B8F1030F5BD11CE0FE
:10576000BDE8F08164E0FFF75BF8042804D1364817
:105770000088801CB84200DDF2E7FFF751F806020E
:10578000FFF74EF80643B6F5067F00DC16B94FF476
:10579000067000E0304660874AE0FFF741F80328D2
:1057A00004D129480088401CB84200DDD8E72748CA
:1057B000007810F0020F2CD0E08B10F4807F28D1FD
:1057C000FFF72EF8054684F8AF5094F8AF000E2886
:1057D00002D90E2084F8AF00002084F8B000E08BDE
:1057E00040F48070E08300BFE06AA0F5A051F0397A
:1057F00001D000BF00BF00BF00BF206BA0F5A051CB
:10580000F03901D000BF00BF00BF41F2F04020637B
:10581000E0620DE013E0FFF703F80546022D00DA21
:105820009EE7A81E0849098808440749088000BF68
:1058300000BF00BF04480088B84281DB00BF00BF42
:105840008EE700008800002094000020A0000020C7
:1058500010B50446207E28B3207E0A2822D0207E60
:1058600001281FD0D4F8880030B1D4F88800FEF7A2
:1058700050FA0020C4F8880004F13804E06C01F00C
:1058800089FA0020E064401E2080606C01F082FAFA
:10589000A06C01F07FFA00206064A064A4F84200CC
:1058A000A4F1380410BD000070B505460C4600BFD9
:1058B0002868A04203D12868C068286017E02649FC
:1058C000286808600EE024480068C068A04204D13F
:1058D0002149E0680968C86008E01F480068C0689E
:1058E0001D4908601C4800680028ECD100BF00205A
:1058F000E06000BF2046FFF7ABFF207E0A280DD0F6
:10590000207E01280AD0E08B10F0010F06D0E08B3A
:1059100040F00200E0832046FFF7F2FC207E0128E1
:1059200013D000BFE06F08B100BF00BF00BF00BFD1
:10593000D4F8800008B100BF00BF00BF00BFD4F89A
:10594000840008B100BF00BF00BF00202076608344
:1059500000BF00BF70BD0000800000202DE9FC41A9
:10596000044600270026FC48007810F0040F2ED0D3
:10597000207E022806D1F949A06D096888420FD11E
:1059800001270DE0F649A06A0968081A08D4D4E98D
:105990000A010844F2490968081A002800DC0127B6
:1059A0009FB100BF207E08B900BF00BF00BFED4817
:1059B000007840F00800EB490870E08B20F001000F
:1059C000E0836FF00C00BDE8FC810020FBE7E248BB
:1059D000007810F0020F0DD0207E02280AD0207E21
:1059E000032807D000BFE08B40F00200E08300BF37
:1059F0000020E8E7E08B10F0100F02D1DA480068D1
:105A00006062002084F8AE002046FFF77FFE207E13
:105A1000801E082873D2DFE800F004ABF5F4F3F23F
:105A2000F1F0CD48007810F0100F69D0CA48007826
:105A300010F0020F64D0D4F88010C9684868FDF7F0
:105A400060FC401CC5490968884278D1606F401CE1
:105A50006067C3480068401CA062A06A6063BF48DA
:105A60000068E064C1480068C08994F8AF108840BD
:105A7000A066A06EE066BA480068401EE06504209B
:105A80002076608F211DFEF79BFD6087A06E60650C
:105A9000608F8100400041F21C12904202D9608F59
:105AA000400001E041F21C10814202D2608F800070
:105AB0000AE0608F400041F21C11884202D9608FD9
:105AC000400001E041F21C10206500BFB4F87800EE
:105AD000002801DC00BF00BF00BF34F8780F401E73
